:0A0000003BC0FECFFDCFFCCFFBCFCD
:10000A00FACFF9CFF8CFF7CFF6CFF5CFF4CFF3CFBA
:10001A00F2CFF1CFF0CFEFCFEECFEDCFFF00202020
:10002A002020202020202020202020202020004CBA
:10003A0043443136303220312057726974650048A2
:10004A00656C6C6F20576F726C6420210000110080
:10005A006001280011007101280010008201390096
:10006A000E00920149000100050026000000F894E4
:10007A00EE27ECBBF1E0FBBFEBBFE5BFF8E1F1BD5A
:10008A00E1BD8DE0A2E0BB27ED938A95E9F780E018
:10009A0094E0A0E6ED930197E9F7E8E5F0E08591B1
:1000AA009591009761F0A591B59105901590BF01C2
:1000BA00F00105900D920197E1F7FB01F0CFEFE512
:1000CA00EDBFE4E0EEBFC0E6D1E09FC01A9310E0B6
:1000DA001730C8F4E981E07849F0A89883E08A9556
:1000EA00F1F7A89A88E28A95F1F708C0A89888E2F9
:1000FA008A95F1F7A89A80E58A95F1F7E981EE0FDA
:10010A00E9831F5FE5CFA89880E991E00197F1F7AD
:10011A00A89A88E592E00197F1F7188148C0E8E0CB
:10012A005E2A83D0E7EF5E2280D00895EFE05E2258
:10013A00E881E1707CD0E2707AD0E47078D0E8701F
:10014A00E295E07F5E2A06C0E881F0E090D074D0A4
:10015A00E88172D0219608951A93E981E03019F462
:10016A00EA81E05802C0EA81E0541E2F80ED97E050
:10017A000197F1F71A93E8DF85E88A95F1F7188174
:10018A0023960895A881B981EC91E03081F0E2E0EC
:10019A005E2A4BD0A881B981EC9151D0EDEF5E2255
:1001AA0044D0E881F9813196E883F983EBCF22962E
:1001BA00089547D046D0D0DFE0E6F1E045D0E1E04F
:1001CA00EA933FD0C9DFE1E7F1E03ED03AD039D037
:1001DA00C3DF0895EBEF5E22EDEF5E22E3E02CD061
:1001EA00E5E0F0E034D0E4E6F0E031D0E2E024D01B
:1001FA00E8E225D0ECE023D0E6E021D0E4E1F0E02B
:10020A00FA93EA9328D0D5DF0895EFEFE5BBE4BB74
:10021A00E1DFE2E8F1E018D014D0E1E0EA939CDFF4
:10022A00E2E9F1E011D0FFCFFFCF5A924FCFE2952A
:10023A00E07F5E2AE8810895EA9378DF70CFEA9337
:10024A0083CFE0E0EA930895FA93EA939BCFFA9377
:10025A00EA9301D064CFE991F991309639F080EDB3
:10026A0097E00197F1F7A8953197C9F70895F595A1
:10027A00E795F595E795F595E795F595E795089549
:00000001FF
